:020000040000FA
:1000000000008316031300308800831603130130A9
:100010008600831203137D230330A0008030F41088
:100020006D23F522C030F4106D230B234F230130D4
:10003000F4106D234F23A00B0E280130F4106D2314
:100040005623BA210130F4106D238030F4106D2353
:100050001D23A401A501A601A701A801A901AD01C5
:10006000AE01AF01B001B101B2019B22AC0124305D
:10007000AA000630A000A201C622A3017D222B08FF
:10008000031954282B03031949282B08023C031990
:100090008E28061C492814306323A20A22080A3C31
:1000A000031D3C28A2013C28A30A2308043C031D8D
:1000B0003E282208A400A500A600A700A800A900C9
:1000C0002530AA000530A00065282A088400000811
:1000D000A200C622A3017D222B08031981282B032D
:1000E000031976282B08023C03198E28061C762853
:1000F00014306323A20A22080A3C031D6928A201C6
:100100006928A30A2308043C031D6B282A088400DD
:1001100022088000AA0AA00B65288E280130AC00B6
:100120002D30AA000630A000A201C622A3017D2224
:100130002B080319AD282B030319A2282B08023C16
:100140000319E628061CA22814306323A20A2208F9
:100150000A3C031D9528A2019528A30A2308043C04
:10016000031D97282208AD00AE00AF00B000B1001B
:10017000B2002E30AA000530A000BE282A08840054
:100180000008A200C622A3017D222B080319DA2849
:100190002B030319CF282B08023C0319E628061C61
:1001A000CF2814306323A20A22080A3C031DC22868
:1001B000A201C228A30A2308043C031DC4282A085C
:1001C000840022088000AA0AA00BBE282A08840006
:1001D00022088000D3219B2256230130F4106D2386
:1001E0008030F4106D232F23A401A501A601A701DF
:1001F000A801A901AD01AE01AF01B001B101B20189
:100200009B22AC012430AA000630A000A201C62225
:10021000A3017D222B0803191F292B03031914297D
:100220002B08023C03195929061C14291430632396
:10023000A20A22080A3C031D0729A2010729A30AD2
:100240002308043C031D09292208A400A500A600D8
:10025000A700A800A9002530AA000530A000302979
:100260002A0884000008A200C622A3017D222B08D0
:1002700003194C292B03031941292B08023C0319AC
:100280005929061C412914306323A20A22080A3C7A
:10029000031D3429A2013429A30A2308043C031DA9
:1002A00036292A08840022088000AA0AA00B3029D7
:1002B00059290130AC002D30AA000630A000A2015F
:1002C000C622A3017D222B08031978292B030319C9
:1002D0006D292B08023C0319B129061C6D29143025
:1002E0006323A20A22080A3C031D6029A201602997
:1002F000A30A2308043C031D62292208AD00AE00B6
:10030000AF00B000B100B2002E30AA000530A0004E
:1003100089292A0884000008A200C622A3017D22A0
:100320002B080319A5292B0303199A292B08023C32
:100330000319B129061C9A2914306323A20A220842
:100340000A3C031D8D29A2018D29A30A2308043C20
:10035000031D8F292A08840022088000AA0AA00B06
:1003600089292A08840022088000EC219B22562338
:10037000B301052AB401B501B601B701B801B9014D
:10038000BA01BB01BC01BD01BE01BF01C001C10179
:10039000C201C301C401C501C601C701C801C90129
:1003A000CA01CB0108002408B4002508B5002608BE
:1003B000B6002708B7002808B8002908B9002D089A
:1003C000BA002E08BB002F08BC003008BD00310861
:1003D000BE003208BF0008002408C0002508C10084
:1003E0002608C2002708C3002808C4002908C50041
:1003F0002D08C6002E08C7002F08C8003008C90005
:100400003108CA003208CB00080014227D222B08D4
:100410000319062A2B08023C0319782AB30A330869
:10042000033C0319B301052A330803191B2A3303BC
:100430000319252A2F2A0130F4106D238030F4107F
:100440006D2341236B229B2208000130F4106D23A1
:100450008030F4106D231D2339229B2208000130C7
:10046000F4106D238030F4106D232F2352229B2231
:1004700008003408A4003508A5003608A60037088F
:10048000A7003808A8003908A9003A08AD003B08C1
:10049000AE003C08AF003D08B0003E08B1003F0888
:1004A000B20008004008A4004108A5004208A600C8
:1004B0004308A7004408A8004508A9004608AD0065
:1004C0004708AE004808AF004908B0004A08B1002C
:1004D0004B08B2000800A401A501A601A701A801CC
:1004E000A901AD01AE01AF01B001B101B201080037
:1004F0000130F4106D234F232128AB010C30A100F3
:100500000A306323061C872AA10B802A0800AB0A45
:10051000061C882A0F3063231930A1000A30632398
:10052000061C952AA10B8E2A0800AB0A061C962AE7
:100530000F3063230800C030F4106D23F414240836
:10054000303E6D232508303E6D232608303E6D2356
:100550002708303E6D232808303E6D232908303EA1
:100560006D232E306D232D08303E6D232E08303E36
:100570006D232F08303E6D233008303E6D23310847
:10058000303E6D233208303E6D230800C030F41039
:100590006D23F414243084000630A1000408A00068
:1005A0002A082002031DD82A2208303E6D23DB2AA8
:1005B0000008303E6D23840AA10BCE2A2E306D2315
:1005C0002D3084000630A1000408A0002A08200273
:1005D000031DEE2A2208303E6D23F12A0008303E2A
:1005E0006D23840AA10BE42A0800F41457306D230C
:1005F00045306D234C306D2343306D234F306D23D8
:100600004D306D2345306D2320306D2354306D23E4
:100610004F306D230800F41444306D2349306D23AE
:1006200056306D2349306D2353306D2349306D238F
:100630004F306D234E306D230800F4144E306D237F
:1006400075306D236D306D2362306D2365306D2301
:1006500072306D2320306D2331306D230800F41487
:100660004E306D2375306D236D306D2362306D23F8
:1006700065306D2372306D2320306D2332306D2351
:100680000800F41452306D2365306D2373306D23F0
:1006900075306D236C306D2374306D23080002308B
:1006A000A100FA306323A10B512B08000430A100F4
:1006B000FA306323A10B582B0800F930F00000003A
:1006C000F00B5F2B0800F1005D23F10B642B080099
:1006D00008155D2308115D230800F500F039880036
:1006E000F418881468235D23F50E7508F039880026
:1006F000F418881468235D23080064306323F03005
:10070000F4003030880068230530632368235D23BC
:1007100068230812682328306D2308306D230130C8
:100720006D2306306D2380306D230C306D2308005F
:04073000003400345D
:02400E00313748
:00000001FF
