:020000040000FA
:1000000000008316031300308800831603130130A9
:1000100086008312031311238030F41001236A2217
:10002000D622A401A501A6010130A7000730A60031
:10003000A901AA01AB010930AC00AD01AE01AF01CD
:10004000B001B101B201B301B4010830B500B6018D
:10005000B7010230B800B901BA01BB010130F41098
:1000600001238030F41001238622EC21D6220130B6
:10007000F41001238030F41001239A221722D62293
:10008000A5205C18E429B520C22048204F20D7299C
:10009000D501DB205D1808000D21B7214928DE01BC
:1000A0005E08053C031C08006220A001DB205D18EF
:1000B0005F280D21A00A2008093C031856287A2041
:1000C000DE0A50284108C0004208C1004308C200AF
:1000D0004408C3004508C4004608C5004708C600D8
:1000E0004808C7004908C8004A08C9004B08CA00A8
:1000F000CB0108005E08003C031993285E08013C10
:10010000031996285E08023C031999285E08033CEF
:1001100003199C285E08043C03199F285E08053CCF
:100120000319A22808002008D60008002008D700DC
:1001300008002008D80008002008D900080020087E
:10014000DA0008002008DB000800DC013008310478
:1001500032043304340435043604370438043904D3
:100160003A043B0403195C140800D001D101D20108
:10017000D301D401D501D601D701D801D901DA01C3
:10018000DB0108002408C0002508C1002608C200C1
:100190002708C3002808C4002908C5002A08C6008B
:1001A0002B08C7002C08C8002D08C9002E08CA005B
:1001B0002F08CB000800DD0130084002031D0A298A
:1001C00031084102031D0A2932084202031D0A298F
:1001D00033084302031D0A2934084402031D0A2977
:1001E00035084502031D0A2936084602031D0A295F
:1001F00037084702031D0A2938084802031D0A2947
:1002000039084902031D0A293A084A02031D0A292E
:100210003B084B02031C5D1408003B08CB0203188B
:1002200014290A30CB075D213A08CA0203181B299A
:100230000A30CA0766213908C902031822290A3080
:10024000C9076F213808C802031829290A30C807CE
:1002500078213708C702031830290A30C7078121DF
:100260003608C602031837290A30C6078A2135081E
:10027000C50203183E290A30C50793213408C40279
:10028000031845290A30C4079C213308C302031808
:100290004C290A30C307A5213208C202031853298A
:1002A0000A30C207AE213108C10203185A290A30A8
:1002B000C107C0033008C0020800CA08031D642932
:1002C0000930CA0066210800CA030800C908031DD6
:1002D0006D290930C9006F210800C9030800C8084A
:1002E000031D76290930C80078210800C8030800DA
:1002F000C708031D7F290930C70081210800C703F3
:100300000800C608031D88290930C6008A21080094
:10031000C6030800C508031D91290930C5009321B3
:100320000800C5030800C408031D9A290930C40049
:100330009C210800C4030800C308031DA329093039
:10034000C300A5210800C3030800C208031DAC298F
:100350000930C200AE210800C2030800C108031D15
:10036000B5290930C100C0030800C1030800D50A3F
:1003700055080A3C031D0800D501D40A54080A3C5C
:10038000031D0800D401D30A53080A3C031D0800CA
:10039000D301D20A52080A3C031D0800D201D10A37
:1003A00051080A3C031D0800D101D00A08000130A1
:1003B000F41001238030F4100123AC22C030F4107B
:1003C00001234222E722EB290130F410012380307F
:1003D000F4100123BC22EB29C030F4100123F414E3
:1003E0002408303E01232508303E01232608303EF4
:1003F00001232708303E01232808303E0123290825
:10040000303E01232E3001232A08303E01232B08E1
:10041000303E01232C08303E01232D08303E0123BD
:100420002E08303E01232F08303E01230800C03043
:10043000F4100123F4143008303E01233108303E1B
:1004400001233208303E01233308303E01233408B3
:10045000303E01233508303E01232E30012336087B
:10046000303E01233708303E01233808303E012357
:100470003908303E01233A08303E01233B08303E24
:1004800001230800F4145008303E01235108303E87
:1004900001235208303E01235308303E0123540803
:1004A000303E01235508303E01232E3001235608EB
:1004B000303E01235708303E01235808303E0123C7
:1004C0005908303E01235A08303E01235B08303E74
:1004D00001230800F4144C3001234F3001234E3027
:1004E00001234730012320300123443001234930C8
:1004F0000123563001234930012353300123493071
:1005000001234F3001234E3001230800F4144430FE
:1005100001236930012376300123693001236430DF
:100520000123653001236E300123643001233A300A
:1005300001230800F414443001236930012376308C
:10054000012369300123733001236F30012372309E
:1005500001233A3001230800F4145230012365309E
:10056000012373300123753001236C300123743073
:1005700001233A3001230800F4144530012352309E
:100580000123523001234F300123523001233A30EE
:100590000123203001234430012349300123563008
:1005A00001232F300123303001230800FA30F722D5
:1005B000FA30F722FA30F722FA30F722FA30F7222F
:1005C000FA30F722FA30F722FA30F7220800D62262
:1005D000FA30F722FA30F722FA30F722FA30F7220F
:1005E0000800F930F0000000F00BF32A0800F100D9
:1005F000F122F10BF82A08000815F1220811F12266
:100600000800F500F0398800F4188814FC22F12263
:10061000F50E7508F0398800F4188814FC22F122D0
:1006200008006430F722F030F40030308800FC22FB
:100630000530F722FC22F122FC220812FC2228308D
:1006400001230830012301300123063001238030CB
:0806500001230C300123080016
:040658000034003436
:02400E00313748
:00000001FF
